:040000000200333295
:03000B0002037578
:0100130032BA
:01001B0032B2
:0100230032AA
:03002B000204E7E5
:03008C00750800F4
:0300A10002002E2C
:03002E000200A825
:2000A400750801227FAAC00712053B1206C8752BA4752C00752D80752D01752E009000C8D5
:2000C400120234D007C0071203D5D007E50860F590000975F040C0071205D3D007EFB509C0
:2000E4000280E2751132751230E50FC4540F2430F513740F550F2430F51475152DE50DC401
:20010400540F2430F516740F550D2430F51775182DE50CC4540F2430F519740F550C243068
:20012400F51A751B00754B11754C00754D40754A00758200120701740F550E2430F5117503
:200144001200754B8A754C07754D80754A0075820B120701754B11754C00754D40754A0007
:2001640075820F120701E50BC4540F2430F511740F550B2430F51275133AE50AC4540F24B0
:2001840030F514740F550A2430F51575163AE509C4540F2430F517740F55092430F51875F1
:1901A4001900754B11754C00754D40754A01758204120701AF090200C93D
:05078A007765656B00BE
:12008F00E4F521F522F523F524752514F526F527F5281B
:2001BD00D28C22C28C22AE82AF838E1D8F1E9003A012074DAE82AF8374FFC39EFE74FF9F99
:2001DD00FD8D8C8E8A227E007F007C007D00EC2401FAED3400FB8A828B83A3A3A3A3E4F01B
:2001FD00A3F0F527F528740C2CFCE43DFD0EBE00010FC3EE940AEF6480948040D1D2AF7537
:20021D0089018525828526831201C3D2A90201BD8527828528832285822F858330E527458D
:20023D002870031201E37C007D007A007B00EA2401F533EB3400F53474042533F531E43594
:20025D0034F532853182853283E0FEA3E0FF4E7076853182853283E52BF0E52CA3F0853352
:20027D0082853483A3A3A3A3A3A3E52DF0E52EA3F0852F35853036E4F537F538E5352521B8
:20029D00F8E5363522F9E5373523FEE5383524FF853382853483E8F0E9A3F0EEA3F0EFA31A
:2002BD00F0853382853483A3A3A3A3A3A3A3A3E535F0E536A3F0E537A3F0E538A3F0052760
:2002DD00E4B5271D052822740C2AFAE43BFB0CBC00010DC3EC940AED6480948050030202B8
:2002FD004B2285823985833AE4F53BF53C7A007B00EA2401F8EB3400F9740628F582E43963
:20031D00F583E0FEA3E0FFAC39AD3AEEB5042CEFB5052888828983A3A3A3A3E4F0A3F0155A
:20033D002774FFB527021528C3E4952774808528F063F08095F0401F0201C0740C2AFAE4F5
:20035D003BFB053BE4B53B02053CC3E53B940AE53C64809480409A22C020C0E0C0F0C082EB
:20037D00C083C007C006C005C004C003C002C001C000C0D075D000AC25AD26E4FEFFEC2596
:20039D0021F521ED3522F522EE3523F523EF3524F5248525828526831201C3D0D0D000D07F
:2003BD0001D002D003D004D005D006D007D083D082D0F0D0E0D02032E4F53DF53E7C007DAB
:2003DD0000EC2401FAED3400FB8A828B83A3A3A3A3E0F8A3E0F9486078C000C0018A828BA7
:2003FD0083E0F8A3E0F9A3E0FEA3E0FFC3E52198E52299E5239EE5249FD001D0004052C0C4
:20041D0005C004C003C002C001C00088828983120031D000D001D002D003D004D00574082C
:20043D002AF582E43BF583E0F8A3E0F9A3E0FEA3E0FFE52128F8E52239F9E5233EFEE52464
:20045D003FFF8A828B83E8F0E9A3F0EEA3F0EFA3F0740C2CFCE43DFD053DE4B53D02053EAD
:20047D00C3E53D940AE53E6480948050030203DE2200000000000022AE82AF838E048F05BF
:20049D001EBEFF011FEC4D600500000080EE22AE82AF83D2AFE4F529F52AF5C88E028F0333
:2004BD007C007D00C39AFAE49BFB74019CE49D8A068B078FCB8ECA85CBCD85CACCD2ADD266
:2004DD00BDD2CA22D2CA22C2CA22C020C0E0C0F0C082C083C007C006C005C004C003C002C8
:2004FD00C001C000C0D075D000C2CFE529452A6009852982852A83120031D0D0D000D0012C
:1E051D00D002D003D004D005D006D007D083D082D0F0D0E0D0203285822985832A220A
:20053B00753F00754030754112754208754310754402754513C297C2B57582001205A6E5C7
:20055B008230E7127546007582071205BB90003F75F04002062B22AF827E01EF5E7004C24E
:20057B00B48002D2B4D2B5C2B5EE2EFE600280EBD2B4227F007E0130B403EE4207D2B5C2B2
:20059B00B5EE2EFE600280EF8F8222AF82D297EF2FFF74814FF58212057212058EC2972252
:2005BB00AF82D297EF2FFF74804FF582120572854682120572C29722AD82AE83AFF0D2976D
:2005DB007582BFC007C006C005120572D005D006D0077C00EC2DF9E43EFA8F03C007C00624
:2005FB00C005C004C003C002C00112058EA882D001D002D003D004D005D006D00789828AE1
:20061B00838BF0E81207320CBC080040C7C29722AD82AE83AFF0D2977582BEC007C006C0D2
:20063B0005120572D005D006D0077C00EC2DF9E43EFA8F0389828A838BF012076AF582C006
:1D065B0007C006C005C004120572D004D005D006D0070CBC080040D4C297222222AA
:200678007580FFC290D291D295AF80C295EF20E7F622AF82C007120678D007C290C2918F2B
:2006980080D295C29522AF82C007120678D007D290C2918F80D295C29522AF82E54770040E
:2006B8008F06800474402FFE74804EF58202068A75823812068A75820C12068A7582061258
:2006D800068A75820102068A75820102068A8548471206B2AF498F061FEE600C758220C0A3
:2006F8000712069ED00780EE22854A471206B2AD4BAE4CAF4D8D828E838FF012076AFC6072
:1A071800188C820DBD00010EC007C006C00512069ED005D006D00780DC22C0
:06006200E478FFF6D8FD72
:200040007900E94400601B7A0090078F787975A000E493F2A308B8000205A0D9F4DAF27558
:02006000A0FFFF
:1B07320020F71130F6138883A88220F509F6A8837583002280FEF280F5F022C6
:1D074D00E582851DF0A4C582C0F0851EF0A4D0F025F0C583851DF0A42583F583222F
:200068007800E84400600A790175A000E4F309D8FC7878E84400600C7901900001E4F0A31D
:04008800D8FCD9FACD
:0F003100E47375814D120786E582600302002E8D
:1C076A0020F71430F6148883A88220F507E6A88375830022E280F7E49322E0229E
:040786007582002256
:00000001FF
