:03008C007508FFF5
:1000E700AF828FF005F07401800225E0D5F0FBF4B4
:1000F700520822AF828FF005F07401800225E0D507
:10010700F0FB420822750800227508FF22E508F473
:10011700F50822AF828FF005F07D017E008006EDA5
:100127002DFDEE33FED5F0F7AB087C00EB5205EC66
:100137005206ED4E60118FF005F07401800225E044
:10014700D5F0FBF45208228FF005F07401800225E8
:10015700E0D5F0FB4208227580FFD294D293D29269
:0A016700D291C290C2948508802254
:10008F00E4F521F522F523F524752514F526F5273A
:02009F00F52842
:10017100D28C22C28C22AE82AF838E6D8F6E9003A1
:10018100A0120CF8AE82AF8374FFC39EFE74FF9F72
:10019100FD8D8C8E8A227E007F007C007D00EC2408
:1001A10001FAED3400FB8A828B83A3A3A3A3E4F0BD
:1001B100A3F0F527F528740C2CFCE43DFD0EBE00E0
:1001C100010FC3EE940AEF6480948040D1D2AF75E1
:1001D1008901852582852683120177D2A9020171C1
:1001E1008527828528832285822F858330E52745CF
:1001F1002870031201977C007D007A007B00EA24BD
:1002010001F533EB3400F53474042533F531E4356D
:1002110034F532853182853283E0FEA3E0FF4E70F2
:1002210076853182853283E52BF0E52CA3F0853389
:1002310082853483A3A3A3A3A3A3E52DF0E52EA375
:10024100F0852F35853036E4F537F538E53525214C
:10025100F8E5363522F9E5373523FEE5383524FF53
:10026100853382853483E8F0E9A3F0EEA3F0EFA3B0
:10027100F0853382853483A3A3A3A3A3A3A3A3E51A
:1002810035F0E536A3F0E537A3F0E538A3F005270F
:10029100E4B5271D052822740C2AFAE43BFB0CBCAB
:1002A10000010DC3EC940AED6480948050030201B7
:1002B100FF2285823985833AE4F53BF53C7A007B60
:1002C10000EA2401F8EB3400F9740628F582E439D8
:1002D100F583E0FEA3E0FFAC39AD3AEEB5042CEFB7
:1002E100B5052888828983A3A3A3A3E4F0A3F0150D
:1002F1002774FFB527021528C3E495277480852844
:10030100F063F08095F0401F020174740C2AFAE446
:100311003BFB053BE4B53B02053CC3E53B940AE5E9
:100321003C64809480409A22C020C0E0C0F0C0822A
:10033100C083C007C006C005C004C003C002C0011D
:10034100C000C0D075D000AC25AD26E4FEFFEC2581
:1003510021F521ED3522F522EE3523F523EF352464
:10036100F524852582852683120177D0D0D000D04F
:1003710001D002D003D004D005D006D007D083D05D
:1003810082D0F0D0E0D02032E4F53DF53E7C007D16
:1003910000EC2401FAED3400FB8A828B83A3A3A332
:1003A100A3E0F8A3E0F9486078C000C0018A828B1D
:1003B10083E0F8A3E0F9A3E0FEA3E0FFC3E5219801
:1003C100E52299E5239EE5249FD001D0004052C04B
:1003D10005C004C003C002C001C000888289831225
:1003E1000031D000D001D002D003D004D005740870
:1003F1002AF582E43BF583E0F8A3E0F9A3E0FEA34C
:10040100E0FFE52128F8E52239F9E5233EFEE52460
:100411003FFF8A828B83E8F0E9A3F0EEA3F0EFA31C
:10042100F0740C2CFCE43DFD053DE4B53D02053EB8
:10043100C3E53D940AE53E64809480500302039233
:100441002200000000000022AE82AF838E048F05DF
:100451001EBEFF011FEC4D70F322AE82AF83D2AFFF
:10046100E4F529F52AF5C88E028F037C007D00C3CF
:100471009AFAE49BFB74019CE49D8A068B078FCB5F
:100481008ECA85CBCD85CACCD2ADD2BDD2CA22D23D
:10049100CA22C2CA22C020C0E0C0F0C082C083C04C
:1004A10007C006C005C004C003C002C001C000C02F
:1004B100D075D000C2CFE529452A600985298285FA
:1004C1002A83120031D0D0D000D001D002D003D085
:1004D10004D005D006D007D083D082D0F0D0E0D0B0
:0904E100203285822985832A223C
:0300A100750900DE
:1004EA00AD82AE83AFF07580FFC294D293E5092442
:1004FA00FA500122E50975F003A490050873020574
:10050A001A0205390205610205890205B10205D9F7
:10051A00C292C291C2907509018D828E838FF012A8
:10052A000D6724C8F582E43400F583E0F58022C221
:10053A0092C291D29075090274012DFAE43EFB8FA2
:10054A00048A828B838CF0120D6724C8F582E43406
:10055A0000F583E0F58022C292D291C29075090318
:10056A0074022DFAE43EFB8F048A828B838CF0128C
:10057A000D6724C8F582E43400F583E0F58022C2D1
:10058A0092D291D29075090474032DFAE43EFB8F3E
:10059A00048A828B838CF0120D6724C8F582E434B6
:1005AA0000F583E0F58022D292C291C290750905C6
:1005BA0074042DFAE43EFB8F048A828B838CF0123A
:1005CA000D6724C8F582E43400F583E0F58022D271
:1005DA0092C291D29075090074052DFDE43EFE8DFC
:1005EA00828E838FF0120D6724C8F582E43400F5F9
:0505FA0083E0F5802202
:100DA200C0F9A4B0999282F880908883C6A1868EF9
:0300A400750A00DA
:1005FF00AD82AE83AFF07580FFC294C293E50A243B
:10060F00F8500122E50A240B83F582E50A240C83B6
:10061F00F583E47333486684A2C0DEFC0606060643
:10062F0006060606C292C291C290750A018D828E8D
:10063F00838FF0120D67F58022C292C291D290750E
:10064F000A0274012DFAE43EFB8F048A828B838C9D
:10065F00F0120D67F58022C292D291C290750A03F3
:10066F0074022DFAE43EFB8F048A828B838CF01286
:10067F000D67F58022C292D291D290750A0474034D
:10068F002DFAE43EFB8F048A828B838CF0120D6768
:10069F00F58022D292C291C290750A0574042DFA88
:1006AF00E43EFB8F048A828B838CF0120D67F580FA
:1006BF0022D292C291D290750A0674052DFAE43EA9
:1006CF00FB8F048A828B838CF0120D67F58022D208
:1006DF0092D291C290750A0774062DFAE43EFB8FF1
:1006EF00048A828B838CF0120D67F58022D292D20E
:1006FF0091D290750A0074072DFDE43EFE8D828E17
:09070F00838FF0120D67F58022C2
:1000A700751D00750BFF750CFF750DFF750EFF7540
:1000B7000FFF7510FF7511FF7512FF7513FF75148C
:1000C700FF7515FF7516FF7517FF7518FF7519FF73
:0800D700751AFFE4F51BF51C8E
:10071800E51D251D25E0240BF9E727FFA2A4E433F6
:100728004FF7E51D251D25E0240B04F9E727FFA257
:10073800A5E4334FF7E51D251D25E0240B2402F918
:10074800E727FFA2A6E4334FF7E51D251D25E02482
:100758000B2403F9E727FFA2A7E433FE4FF77F0036
:10076800E51D251D25E0FE240BFD2FF9E77035E575
:100778001D75F004A4FCADF0EFFA3395E0FBEA2C0C
:10078800FCEB3D8CF005F07C017D008006EC2CFC38
:10079800ED33FDD5F0F7EC421BED421CEE240BFEC9
:1007A8002FF876FF0FC3EF6480948440B3E51D24CF
:1007B800FC4035E51D75F003A49007C5730207D109
:1007C8000207D90207E10207E9D2A3C2A2751D01F7
:1007D80022D2A2C2A1751D0222D2A1C2A0751D03F8
:1007E80022D2A0C2A3751D0022851B82851C8322EC
:1007F800AF828FF005F07F017E008006EF2FFFEEBD
:1008080033FED5F0F7EFF4FFEEF4FEEF521BEE5295
:100818001C22B296227580FFC290D291D295AF80E9
:10082800C295EF20E7F622AF82C00712081DD00755
:10083800C290C2918F80D295C29522AF82C0071212
:10084800081DD007D290C2918F80D295C29522AF51
:1008580082E53F70048F06800474402FFE74804E3A
:10086800F58202082F75823812082F75820C12083B
:100878002F75820612082F75820102082F758201D2
:1008880002082F85403F120857AF418F061FEE60C0
:100898000C758220C007120843D00780EE228542DB
:1008A8003F120857AD43AE44AF458D828E838FF01B
:1008B800120D67FC60188C820DBD00010EC007C0C8
:0F08C80006C005120843D005D006D00780DC22F9
:040000000200333295
:03000B00020329C4
:0100130032BA
:01001B0032B2
:030023000209AC23
:03002B0002049636
:0300E40002002EE9
:03002E000208D7EE
:1008D700900079E4F0A3F090007B7441F090007CE5
:1008E7007454F090007D742BF090007E7452F09059
:1008F700007F744FF0900080744CF0900081744535
:10090700F0900082743FF0900083740DF0900084A3
:10091700740AF0900085E4F0902580120A501208BE
:100927006D120BDF900079E02401F0A3E03400F0B2
:10093700900079E0FEA3E0FF7D007C00C374509E29
:1009470074C39FE49D74808CF063F08095F050D45D
:10095700756886756900756A0075660A756700753A
:100967006B0F756C0090007B75F000120C47E582E9
:10097700FF142486F582E43400F5837430F0EF2405
:1009870086F582E43400F583E4F075438675440008
:10099700F5457542017582001208A6900079E4F0CA
:0509A700A3F002092B82
:0500DF00E4F54AF54BB9
:1009AC00C020C0E0C0F0C082C083C007C006C00534
:1009BC00C004C003C002C001C000C0D075D000107C
:1009CC009802803AC3E5469432E5476480948040AF
:1009DC0005E4F546F547AE46AF470546E4B5460295
:1009EC000547EE2496F582EF3400F583E599F0E5A2
:1009FC004C454D6009854C82854D83120031109910
:100A0C00028015754A01754B00E54E454F6009850E
:100A1C004E82854F83120031D0D0D000D001D0024D
:100A2C00D003D004D005D006D007D083D082D0F02C
:100A3C00D0E0D02032755002755100900D8775F0C2
:100A4C0080020A92AE82AF83D2AF75985053890F51
:100A5C004389208E6D8F6E756F007570009070805D
:100A6C00E4F5F0120D15AC82C3E49CF58D858D8BED
:100A7C00C2ABD2ACD28E22858299E54A454B60FA44
:100A8C00E4F54AF54B22AD82AE83AFF07B007C00DF
:100A9C00C3EB9550EC64808551F063F08095F05079
:100AAC0031EB2DF8EC3EF98F02888289838AF012A3
:100ABC000D67F582C007C006C005C004C003120A4A
:100ACC0083D003D004D005D006D0070BBB00C10CDB
:100ADC0080BE22E546B54807E547B549028032E5B8
:100AEC00482496FEE5493400FF8E828F83E0FD8E0C
:100AFC00828F83E4F00548B548020549C3E5489464
:100B0C0032E549648094804005E4F548F5498D82CE
:100B1C00227582002285825485835585F056C3E464
:100B2C00955274808553F063F08095F0400490FFEB
:100B3C00FF22120ADFAC827A007B00EC6039EA25D6
:100B4C0054F8EB3555F9AF56888289838FF0EC1247
:100B5C000CDD0ABA00010BC3EA9552EB6480855395
:100B6C00F063F08095F0500FC003C002120ADFACA6
:100B7C0082D002D00380C48A828B832285825985DD
:100B8C00835A85F05B7B007C00A957AA58C3EB996C
:100B9C00EC9A5030EB2559F8EC355AFEAF5BE9C3B3
:100BAC009BF552EA9CF55388828E838FF0C004C06B
:100BBC0003120B21AE82AF83D003D004EE2BFBEFDC
:100BCC003CFC80C52285824C85834D2285824E85D6
:030BDC00834F2222
:030D87000D0A0052
:100BDF0012086D755004755100900D8A75F08012D2
:100BEF000A929003E812044975520375530090005E
:100BFF005C75F040120B21744FB55C27744BB55DDB
:100C0F002275400075411075820012088B75438F55
:100C1F0075440D7545807542007582001208A675E2
:100C2F0082002275439775440D7545807542007596
:100C3F0082001208A6809C22AD82AE83AFF085663B
:100C4F00508567518D828E838FF0120A929003E840
:100C5F00120449856B52856C53856882856983853B
:090C6F006AF0020B2175820022DB
:100D8A0041540D0A00484330352D4F4B004843303B
:080D9A00352D4572726F7200E5
:100C7800FB7A20E4FCFDFEFFE5822582F582E58310
:100C880033F583E5F033F5F0EB33FB4017DAE98011
:100C980042E5822582F582E58333F583E5F033F575
:100CA800F0EB33FBEC33FCED33FDEE33FEEF33FFBB
:100CB800EC956DED956EEE956FEF95704013EC9594
:100CC8006DFCED956EFDEE956FFEEF9570FF43821E
:050CD80001DABEEB2271
:06006200E478FFF6D8FD72
:100040007910E94400601B7A01900DA278C875A070
:1000500000E493F2A308B8000205A0D9F4DAF2751F
:02006000A0FFFF
:100CDD0020F71130F6138883A88220F509F6A88332
:100CED007583002280FEF280F5F022E582856DF09D
:100CFD00A4C582C0F0856EF0A4D0F025F0C5838523
:080D0D006DF0A42583F583229B
:100068007800E84400600A790175A000E4F309D833
:10007800FC78C7E84400600C7901900001E4F0A323
:04008800D8FCD9FACD
:100D1500FBC2D530E715D2D5E4C39582F582E495BB
:100D250083F583E495F0F5F0E49BFBE57030E71778
:100D3500B2D5E4C3956DF56DE4956EF56EE4956FEA
:100D4500F56FE49570F570EB120C7830D513FBE474
:100D5500C39582F582E49583F583E495F0F5F0E497
:020D65009B22CF
:0F003100E473758170120D83E582600302002E67
:100D670020F71430F6148883A88220F507E6A883B5
:100D770075830022E280F7E49322E0227582002245
:00000001FF
