:03006C007508FF15
:10009E00AF828FF005F07401800225E0D5F0FBF4FD
:1000AE00520822AF828FF005F07401800225E0D550
:1000BE00F0FB420822750800227508FF22E508F4BD
:1000CE00F50822AF828FF005F07D017E008006EDEF
:1000DE002DFDEE33FED5F0F7AB087C00EB5205ECB0
:1000EE005206ED4E60118FF005F07401800225E08E
:1000FE00D5F0FBF45208228FF005F0740180022532
:10010E00E0D5F0FB4208227580FFD294D293D292B2
:0A011E00D291C290C294850880229D
:0400000002001332B5
:03000B0002039A53
:10006F00750900750A00750B00750C00750D00758C
:07007F000E00E4F50FF5107F
:03009B0002000E52
:03000E000201BC30
:10012800050FE4B50F02051075120A751300850F47
:1001380082851083120652AE828E0975120A7513D3
:1001480000850F8285108312060C75120A7513003C
:10015800120652AE828E0A751264751300850F82DC
:1001680085108312060C75120A751300120652AE1A
:10017800828E0B7512E8751303850F828510831222
:10018800060C75120A751300120652AE828E0C7593
:100198001210751327850F8285108312060C7512AD
:1001A8000A751300120652AE828E0D90000975F082
:1001B80040020592752928752A01752B80752B0137
:1001C800752C009003E812025990000975F040124E
:0A01D80005921204CC1203FA80F81D
:10008600E4F521F522F523F524752514F526F52743
:02009600F5284B
:1001E200D28C22C28C22AE82AF838E128F139003E6
:1001F200A0120635AE82AF8374FFC39EFE74FF9FCA
:10020200FD8D8C8E8A227E007F007C007D00EC2496
:1002120001FAED3400FB8A828B83A3A3A3A3E4F04B
:10022200A3F0F527F528740C2CFCE43DFD0EBE006E
:10023200010FC3EE940AEF6480948040D1D2AF756F
:1002420089018525828526831201E8D2A90201E26D
:100252008527828528832285822D85832EE5274561
:100262002870031202087C007D007A007B00EA24D9
:1002720001F531EB3400F53274042531F52FE43504
:1002820032F530852F82853083E0FEA3E0FF4E7089
:1002920076852F82853083E529F0E52AA3F0853122
:1002A20082853283A3A3A3A3A3A3E52BF0E52CA30A
:1002B200F0852D33852E34E4F535F536E5332521E9
:1002C200F8E5343522F9E5353523FEE5363524FFE8
:1002D200853182853283E8F0E9A3F0EEA3F0EFA343
:1002E200F0853182853283A3A3A3A3A3A3A3A3E5AD
:1002F20033F0E534A3F0E535A3F0E536A3F00527A6
:10030200E4B5271D052822740C2AFAE43BFB0CBC39
:1003120000010DC3EC940AED648094805003020244
:100322007022858237858338E4F539F53A7A007B85
:1003320000EA2401F8EB3400F9740628F582E43966
:10034200F583E0FEA3E0FFAC37AD38EEB5042CEF49
:10035200B5052888828983A3A3A3A3E4F0A3F0159B
:100362002774FFB527021528C3E4952774808528D2
:10037200F063F08095F0401F0201E5740C2AFAE464
:100382003BFB0539E4B53902053AC3E539940AE580
:100392003A64809480409A22C020C0E0C0F0C082BB
:1003A200C083C007C006C005C004C003C002C001AC
:1003B200C000C0D075D000AC25AD26E4FEFFEC2510
:1003C20021F521ED3522F522EE3523F523EF3524F3
:1003D200F5248525828526831201E8D0D0D000D06D
:1003E20001D002D003D004D005D006D007D083D0EC
:1003F20082D0F0D0E0D02032E4F53BF53C7C007DA9
:1004020000EC2401FAED3400FB8A828B83A3A3A3C0
:10041200A3E0F8A3E0F9486078C000C0018A828BAB
:1004220083E0F8A3E0F9A3E0FEA3E0FFC3E521988F
:10043200E52299E5239EE5249FD001D0004052C0D9
:1004420005C004C003C002C001C0008882898312B3
:100452000011D000D001D002D003D004D00574081E
:100462002AF582E43BF583E0F8A3E0F9A3E0FEA3DA
:10047200E0FFE52128F8E52239F9E5233EFEE524EF
:100482003FFF8A828B83E8F0E9A3F0EEA3F0EFA3AB
:10049200F0740C2CFCE43DFD053BE4B53B02053C4D
:1004A200C3E53B940AE53C64809480500302040354
:1004B2002200000000000022AE82AF838E048F056E
:0A04C2001EBEFF011FEC4D70F32277
:03009800751100DF
:1004CC00C294D2937580FFE51124FA500122E511F4
:1004DC0075F003A49004E4730204F60205100205FF
:1004EC002A02054402055E020578C292C291C290AE
:1004FC00751101900089E02479F582E43400F583CC
:10050C00E0F58022C292C291D29075110290008ABD
:10051C00E02479F582E43400F583E0F58022C29280
:10052C00D291C29075110390008BE02479F582E48E
:10053C003400F583E0F58022C292D291D2907511ED
:10054C000490008CE02479F582E43400F583E0F526
:10055C008022D292C291C29075110590008DE02438
:10056C0079F582E43400F583E0F58022D292C291D1
:10057C00D29075110090008EE02479F582E434005D
:10058C00F583E0F58022AD82AE83AFF012069F902A
:10059C000089F074012DFAE43EFB8F048A828B8370
:1005AC008CF012069F90008AF074022DFAE43EFB48
:1005BC008F048A828B838CF012069F90008BF074D0
:1005CC00032DFAE43EFB8F048A828B838CF0120697
:1005DC009F90008CF074042DFAE43EFB8F048A8209
:1005EC008B838CF012069F90008DF074052DFDE42A
:1005FC003EFE8D828E838FF012069F90008EF0222D
:1006BF00C0F9A4B0999282F880908883C6A1868EE3
:0606CF00FFFFFFFFFFFF2B
:10060C007A10E4FBFCE58225E0F582E58333F58383
:10061C00EB33FBEC33FCEB9512F5F0EC9513400649
:09062C00FCABF0438201DADD228F
:06004200E478FFF6D8FD92
:100020007916E94400601B7A019006BF787975A0C3
:1000300000E493F2A308B8000205A0D9F4DAF2753F
:02004000A0FF1F
:10063500E5828512F0A4C582C0F08513F0A4D0F040
:1006450025F0C5838512F0A42583F58322E512459F
:100655001360467A01E51225E0F512E513334012E1
:10066500F513E5829512E583951340030A80E6C3E9
:10067500E51313F513E51213F512C3E5829512F58B
:10068500F0E58395134005F58385F082C3E51313E3
:0A069500F513E51213F512DAE12265
:100048007800E84400600A790175A000E4F309D853
:10005800FC7878E84400600C7901900001E4F0A392
:04006800D8FCD9FAED
:0F001100E47375813C1206BBE582600302000EAA
:10069F0020F71430F6148883A88220F507E6A88384
:1006AF0075830022E280F7E49322E0227582002214
:00000001FF
